:100595004F4B0041542B434D47463D310D002C0038
:1005A5000D004552524F5200534D004154440041F5
:1005B500540D0041542B434D47463D310D004154E8
:1005C5002B435343533D2247534D220D0041542B9A
:1005D500434E4D493D322C312C0D0041542B434D9A
:1005E50047533D22313532363131373238363522AF
:1005F5000D0068656C6C6F1A0D0041542B434D4717
:10060500523D001A0D00220D0041742B434D4753F6
:100615003D22000000000000000000000000004135
:0E062500542B434D47523D00000000000000E2
:06092C00C10241000000C1
:0A091A00EF1F70011E144E70F7224B
:1008EC00D3EF9400EE940040147D6E7C00ED1D70EF
:0D08FC00011CED4C70F7EF1F70E61E80E34D
:0109090022CB
:0F090A007F64900001E4F0A3DFFCE4900000F0B4
:0109190022BB
:1008CD0053F13F43D4C075B1677F007E0412091AFE
:0F08DD00E5B130E7FB75EF0675A901E4F5B2222E
:10000300758DA0538EF4438E08438920E4F58BD27B
:100013008EC29FD29CD2BCD2AC43A41043E1012236
:1006BF00754BFF754C05754D95754E00754F327B1B
:0506CF00FF7A0579C36C
:0606D4008B488A49894AA7
:1006DA00E4F55012090AAB48AA49A94A1202E6FFF0
:1006EA0060101209247401254AF54AE43549F5498E
:1006FA0080E4E54C454D454B603AE54F454E603444
:10070A00E54F154F7002154E14454E601E7F0A7E46
:10071A00001208EC854B54854C55854D567B017A61
:10072A00007901120741EA494B60D5E54F454E7001
:06073A0003755001AF50F1
:010740002296
:080924002002FD8F99D202228E
:0604D5008B268A2789280E
:1004DB00782C7C007D007BFF7A0679087E007F03F9
:1004EB001202C0782F7C007D007BFF7A06790B7E91
:1004FB00007F031202C078327C007D007BFF7A06FE
:10050B00790E7E007F161202C01206BF754BFF7567
:10051B004C05754D95754E00754F327BFF7A0579FD
:10052B00981206D485264B85274C85284D7B007A5F
:10053B0000793212081F754B00754C00754D2F7BDF
:10054B00007A00793212081F754BFF754C05754DFB
:10055B0095754E00754F327B007A0079321206D4B6
:10056B00754B00754C00754D2CAB29AA2AA92B1283
:10057B00081F754BFF754C05754D95754E00754FE6
:0A058B0032AB29AA2AA92B0206D4DC
:0A0026008F268D278B288A29892A4E
:10003000782B7C007D007BFF7A0679247E007F0F81
:100040001202C0E4F540F541E52675F064842430E1
:10005000F53AE52675F00A8475F00A84E5F0243057
:10006000F53BE52675F00A84E5F02430F53CE4F52F
:100070003DE5272430F53EE4F53FF54B754C007522
:100080004D3AFB7A00792B12081F754BFF754C0512
:10009000754DA37B007A00792B12081F754B0075F4
:1000A0004C00754D3E7B007A00792B12081F754B72
:1000B000FF754C05754DA57B007A00792B12081F42
:1000C000754BFF754C05754D95754E00754FC87B8A
:1000D000007A00792B1206D47554FF7555057556B4
:1000E000957B017A007901120741EA494B701A7534
:1000F00054FF7555057556A77B017A0079011207E3
:1001000041EA494B60D2754001E540640170030249
:1001100001ED7554FF7555057556A37B017A00797D
:10012000011207418B428A438944E92401F9E43AE8
:10013000FA7554FF7555057556A31207418B428A0F
:1001400043894474052544F544E43543F543E4F517
:1001500041AB42AA43A9448541827583001202FF44
:10016000AB28AA29A92A85418275830012033E057E
:1001700041E541B40BDBAB28AA29A92A8541827548
:100180008300E412033E7B017A0079017D2212088C
:10019000778B428A43894474032544F544E435430C
:1001A000F543E4F541AB42AA43A9448541827583F6
:1001B000001202FFFF640D601CAB28E52A240CF935
:1001C000E43529FAE5417C0029F9EC3AFAEF12030B
:1001D0002C054180D0AB28E52A240CF9E43529FA16
:0F01E0007E00E92541F9EE3AFAE412032CAF4014
:0101EF0022ED
:1003B500C200C201E4F521F522F523F524F5255304
:1003C500D9BFC2AF75A60C75E2401208CD12000365
:1003D500D2AF754BFF754C05754D95754E00754F34
:1003E500327BFF7A0579B81206D41206BF754BFF2A
:1003F500754C05754D95754E00754F327BFF7A0529
:1004050079D21206D47FF47E011208EC7B007A00C3
:10041500795DE4FD7F28120026752900752A00758F
:100425002B697B007A00795D1204D5E52270387559
:1004350054FF7555057556AD7B017A007901120794
:10044500418B238A2489257F647E001208ECAB2327
:10045500AA24A9259000041202FFF57D900005123B
:1004650002FFF57EE4F57FE5254524600F75220141
:10047500A2A3B392A37FE87E031208EC20A0167F07
:10048500B87E0B12091A20A00E20000BA2A2B3926F
:10049500A2D2008002C20020A1317FB87E0B1209D2
:1004A5001A20A187200184E4F52174012521F58214
:1004B500E43400F583E0FF1209240521E521C39406
:1004C5000A40E7E4F521D201020430C201020430FA
:030023000207C30E
:1007C300C0E0C0F0C083C082C0D075D000C000C0FC
:1007D30004C005C006C007309826C298900000E008
:1007E300FF2401F582E43400F583E599F0EF240159
:1007F300FFE433FE7C007D64120360900000EDF0A3
:10080300309904C299C202D007D006D005D004D0D3
:0C08130000D0D0D082D083D0F0D0E032F2
:03000000020633C2
:0C063300787FE4F6D8FD75817F02067A1E
:10063F000203B5E493A3F8E493A34003F68001F219
:10064F0008DFF48029E493A3F85407240CC8C333BC
:10065F00C4540F4420C8834004F456800146F6DF8B
:10066F00E4800B010204081020408090092CE47EE6
:10067F00019360BCA3FF543F30E509541FFEE49380
:10068F00A360010ECF54C025E060A840B8E493A347
:10069F00FAE493A3F8E493A3C8C582C8CAC583CA72
:1006AF00F0A3C8C582C8CAC583CADFE9DEE780BE2A
:0109320000C4
:1001F000E709F608DFFA8046E709F208DFFA803EF1
:1002000088828C83E709F0A3DFFA8032E309F608DD
:10021000DFFA8078E309F208DFFA807088828C8345
:10022000E309F0A3DFFA806489828A83E0A3F608F9
:10023000DFFA805889828A83E0A3F208DFFA804CD3
:1002400080D280FA80C680D4806980F280338010AA
:1002500080A680EA809A80A880DA80E280CA803313
:1002600089828A83ECFAE493A3C8C582C8CCC5838B
:10027000CCF0A3C8C582C8CCC583CCDFE9DEE7805B
:100280000D89828A83E493A3F608DFF9ECFAA9F0DA
:10029000EDFB2289828A83ECFAE0A3C8C582C8CC30
:1002A000C583CCF0A3C8C582C8CCC583CCDFEADE49
:1002B000E880DB89828A83E493A3F208DFF980CCAB
:1002C00088F0EF60010E4E60C388F0ED2402B404A4
:1002D0000050B9F582EB2402B4040050AF2323454B
:0602E0008223900240732E
:1002E600BB010689828A83E0225002E722BBFE0216
:0902F600E32289828A83E4932249
:1002FF00BB010CE58229F582E5833AF583E02250B4
:10030F0006E92582F8E622BBFE06E92582F8E222FD
:0D031F00E58229F582E5833AF583E4932217
:10032C00BB010689828A83F0225002F722BBFE01B0
:02033C00F322AA
:10033E00F8BB010DE58229F582E5833AF583E8F0F5
:10034E00225006E92582C8F622BBFE05E92582C8A1
:02035E00F22289
:10036000BC000BBE0029EF8DF084FFADF022E4CC81
:10037000F875F008EF2FFFEE33FEEC33FCEE9DEC4A
:10038000984005FCEE9DFE0FD5F0E9E4CEFD22ED90
:10039000F8F5F0EE8420D21CFEADF075F008EF2FDA
:1003A000FFED33FD4007985006D5F0F222C398FDCB
:0503B0000FD5F0EA2268
:10081F008B488A49894A8B4E8A4F8950AB48054A83
:10082F00E54AAA497002054914F91202E670ED74FF
:10083F00FF254AF54A74FF3549F549AB4B054DE5A0
:10084F004DAA4C7002054C14F91202E6FFAB480595
:10085F004AE54AAA497002054914F9EF12032C70B0
:08086F00DAAB4EAA4FA950229A
:100877008B458A4689478B488A49894AAB48AA49A2
:10088700A94A1202E6600D7401254AF54AE4354982
:10089700F54980E8AB48AA49A94A1202E66D7001FA
:1008A70022E54A154AAA4970021549F9E5458546E0
:1008B7008385478265487008E965827003EA658326
:0608C70070D2FBFAF922D9
:100741008B518A528953AB54AA55A9561202E660BD
:1007510063AB51AA52A9531202E6605F85545785D3
:1007610055588556598B5A8A5B895CAB57AA58A94B
:10077100591202E6FF6023AB5AAA5BA95C1202E69A
:100781006F7017042559F559E43558F5587401254A
:100791005CF55CE4355BF55B80D1AB57AA58A95990
:1007A1001202E67002800D74012553F553E43552AF
:1007B100F552809DAB51AA52A953227B007A007950
:0207C100002214
:00000001FF
