:100821004F4B0041542B434D47463D310D002C00A9
:100831000D004552524F5200534D00415444004166
:10084100540D0041542B434D47463D310D00415459
:100851002B435343533D2247534D220D0041542B0B
:10086100434E4D493D322C312C0D0041542B434D0B
:1008710047533D2231353236313137323836352220
:100881000D0068656C6C6F1A0D0041542B434D4788
:10089100523D003135323631313732383635001A72
:1008A1000D00220D0041742B434D47533D220000A2
:1008B100000000000000000000000041542B434DE7
:1008C10047523D0000000000000049276D20736978
:0608D1006D3930306100BA
:100D6B00C1034100300043002DFF089441000000F7
:0A0D9B00EF1F70011E144E70F722C6
:100D2800D3EF9400EE940040147D6E7C00ED1D70AE
:0D0D3800011CED4C70F7EF1F70E61E80E30C
:010D4500228B
:0F0D7C007F64900034E4F0A3DFFCE4900030F0DB
:010D8B002245
:070DAD0043B20375EF0422BD
:10000300758DA0538EF4438E08438920E4F58BD27B
:100013008EC29FD29CD2BCD2AC43A41043E1012236
:1008D700754AFF754B08754C21754D00754E327B77
:0508E700FF7A08794FC3
:0608EC008B478A48894990
:1008F200E4F54FFFAB47AA48A9498F8275830012DE
:10090200013560030F80EDAB477E00E5492FF9EE1C
:100912003548FA90FFFF120135640D6006754F01EC
:10092200AF4F22120D7CAB47AA48A94912011CFF06
:100932006010120DA574012549F549E43548F548C2
:1009420080E4E54B454C454A603AE54E454D6034FE
:10095200E54E154E7002154D14454D601E7F0A7E00
:1009620000120D28854A53854B54854C557B017ADC
:10097200007934120AC3EA494B60D5E54E454D7001
:0609820003754F01AF4FA9
:01098800224C
:080DA5002003FD8F99D2032207
:1007450074012521F582E43400F583E4F075280170
:0C075500752900752A987B017A00790153
:060761008B258A26892782
:10076700782B7C007D007BFF7A0879A07E007F03D1
:100777001200F6782E7C007D007BFF7A0879A37E35
:10078700007F031200F678317C007D007BFF7A083A
:1007970079A67E007F161200F61208D7754AFF75F4
:1007A7004B08754C21754D00754E327BFF7A0879E1
:1007B700241208EC85254A85264B85274C7B007A31
:1007C700007931120BA1754A00754B00754C2E7BD1
:1007D700007A007931120BA1754AFF754B08754CE9
:1007E70021754D00754E327B007A0079311208EC85
:1007F700754A00754B00754C2BAB28AA29A92A12FC
:100807000BA1754AFF754B08754C21754D00754E48
:0A08170032AB28AA29A92A0208EC36
:0A057B008F258D268B278A288929F9
:10058500782A7C007D007BFF7A0879BC7E007F0F8E
:100595001200F6E4F53FF540E52575F06484243056
:1005A500F539E52575F00A8475F00A84E5F02430FF
:1005B500F53AE52575F00A84E5F02430F53BE4F5D8
:1005C5003CE5262430F53DE4F53EF54A754B0075CE
:1005D5004C39FB7A00792A120BA1754AFF754B0835
:1005E500754C2F7B007A00792A120BA1754A00758C
:1005F5004B00754C3D7B007A00792A120BA1754A98
:10060500FF754B08754C317B007A00792A120BA1D6
:10061500754AFF754B08754C21754D00754EC87BA5
:10062500007A00792A1208EC7553FF755408755540
:10063500217B017A007934120AC3EA494B701A7595
:1006450053FF7554087555337B017A007934120AC6
:10065500C3EA494B60D2753F01E53F64017003026F
:1006650007427553FF75540875552F7B017A00793C
:1006750034120AC38B418A428943E92401F9E43AD9
:10068500FA7553FF75540875552F120AC38B418AA5
:1006950042894374052543F543E43542F542E4F5C3
:1006A50040AB41AA42A943854082758300120135BA
:1006B500AB27AA28A92985408275830012017405F4
:1006C50040E540B40BDBAB27AA28A92985408275F4
:1006D5008300E41201747B017A0079347D22120BC8
:1006E500F98B418A42894374032543F543E4354236
:1006F500F542E4F540AB41AA42A9438540827583A2
:1007050000120135FF640D601CAB27E529240CF9A7
:10071500E43528FAE5407C0029F9EC3AFAEF1201B4
:1007250062054080D0AB27E529240CF9E43528FA89
:0F0735007E00E92540F9EE3AFAE4120162AF3F87
:010744002292
:060C96008B258A26892748
:100C9C00E4F5287F01F529E52975F003A4242DF549
:100CAC0082E43400F583E0FBA3E0FAA3E0F9A82783
:100CBC00AC26AD25120369EF60070529E529B401BF
:090CCC00D6EF6003752801AF2882
:010CD50022FC
:10039800C200C201E4F521F522F523F52478987C02
:1003A800007D017BFF7A0879CBFE7F0C1200F653A3
:1003B800D9BFC2AF75A60C75E240120DAD1200038D
:1003C800D2AF754AFF754B08754C21754D00754EB7
:1003D800327BFF7A0879441208EC1208D7754AFF75
:1003E800754B08754C21754D00754E327BFF7A08A8
:1003F800795E1208EC7FF47E01120D28900000E06F
:1004080014604314607A1470030204CB240360035D
:100418000204FA7553FF7554087555397B017A0043
:100428007934120AC38B228A2389247F647E0012BE
:100438000D28E5244523452270030204FA900000A4
:100448007401F00204FAAB22AA23A9249000041232
:100458000135900031F0900005120135900032F01E
:10046800E4A3F07B017A0079311209897B017A00D3
:10047800790DE4FD12057B9000007402F00204FA85
:100488007B017A00790D120C96EF7018FF7E8012AE
:100498000CFF7B017A007919752A147F007E80127F
:1004A8000C4F80179000197445F0A37452F0A3F014
:1004B800A3744FF0A37452F0E4A3F0900000740307
:1004C800F0802FE4F521E42521FFE43480FE120DAD
:1004D8005974012521F582E43400F583EFF00521F4
:1004E800E521C3940C40DF120745E4900000F012A8
:1004F8000D7C20A03D7FB87E0B120D9B20A03520DF
:100508000032A2A2B392A2E4F521E42521FFE4344B
:1005180080FE120D5974012521F582E43400F5831B
:10052800EFF00521E521C3940C40DF120745D20006
:100538008002C20020A1377FB87E0B120D9B30A12C
:1005480003020404300103020404E4F52174342591
:1005580021F582E43400F583E0FF120DA50521E5BD
:1005680021C3940A40E7E4F521D201020404C20140
:0305780002040476
:03002300020B4588
:100B4500C0E0C0F0C083C082C0D075D000C000C076
:100B550004C005C006C007309826C298900030E052
:100B6500FF2434F582E43400F583E599F0EF2401A0
:100B7500FFE433FE7C007D64120196900030EDF0B9
:100B8500309904C299C203D007D006D005D004D04D
:0C0B950000D0D0D082D083D0F0D0E0326D
:03000000020A37BA
:0C0A3700787FE4F6D8FD75815B020A7E32
:100CD600A2AF9202C2AF75FF8075EF028F828E833C
:100CE60075B7A575B7F1438F0175FF8075EF02EDF6
:080CF600F0538FFEA20292AF41
:010CFE0022D3
:060C4F008B278A28892989
:100C55008E2B8F2CE4F52DF52DAF2AEF3395E0FE85
:100C6500C3E52D9FEE6480F87480985023AB27AAC6
:100C750028A929852D82758300120135FDAF2CAE7B
:100C85002B120CD6052CE52C7002052B052D80C9E1
:010C9500223C
:100D5900A2AF9202C2AF8F828E83E493FFA2029266
:010D6900AFDA
:010D6A002266
:100CFF00A2AF9202C2AF75FF8075EF028F828E8313
:100D0F0075B7A575B7F1438F0375FF8075EF02E4D3
:080D1F00F0538FFCA20292AF19
:010D270022A9
:100A4300020398E493A3F8E493A34003F68001F22E
:100A530008DFF48029E493A3F85407240CC8C333B4
:100A6300C4540F4420C8834004F456800146F6DF83
:100A7300E4800B0102040810204080900D6BE47E9B
:100A8300019360BCA3FF543F30E509541FFEE49378
:100A9300A360010ECF54C025E060A840B8E493A33F
:100AA300FAE493A3F8E493A3C8C582C8CAC583CA6A
:100AB300F0A3C8C582C8CAC583CADFE9DEE780BE22
:010D7B000077
:10002600E709F608DFFA8046E709F208DFFA803EBC
:1000360088828C83E709F0A3DFFA8032E309F608A9
:10004600DFFA8078E309F208DFFA807088828C8311
:10005600E309F0A3DFFA806489828A83E0A3F608C5
:10006600DFFA805889828A83E0A3F208DFFA804C9F
:1000760080D280FA80C680D4806980F28033801076
:1000860080A680EA809A80A880DA80E280CA8033DF
:1000960089828A83ECFAE493A3C8C582C8CCC58357
:1000A600CCF0A3C8C582C8CCC583CCDFE9DEE78027
:1000B6000D89828A83E493A3F608DFF9ECFAA9F0A6
:1000C600EDFB2289828A83ECFAE0A3C8C582C8CCFC
:1000D600C583CCF0A3C8C582C8CCC583CCDFEADE15
:1000E600E880DB89828A83E493A3F208DFF980CC77
:1000F60088F0EF60010E4E60C388F0ED2402B40470
:100106000050B9F582EB2402B4040050AF23234516
:06011600822390007673C5
:10011C00BB010689828A83E0225002E722BBFE02E1
:09012C00E32289828A83E4932214
:10013500BB010CE58229F582E5833AF583E022507F
:1001450006E92582F8E622BBFE06E92582F8E222C9
:0D015500E58229F582E5833AF583E49322E3
:10016200BB010689828A83F0225002F722BBFE017C
:02017200F32276
:10017400F8BB010DE58229F582E5833AF583E8F0C1
:10018400225006E92582C8F622BBFE05E92582C86D
:02019400F22255
:10019600BC000BBE0029EF8DF084FFADF022E4CC4D
:1001A600F875F008EF2FFFEE33FEEC33FCEE9DEC16
:1001B600984005FCEE9DFE0FD5F0E9E4CEFD22ED5C
:1001C600F8F5F0EE8420D21CFEADF075F008EF2FA6
:1001D600FFED33FD4007985006D5F0F222C398FD97
:0501E6000FD5F0EA2234
:100BA1008B478A4889498B4D8A4E894FAB47054906
:100BB100E549AA487002054814F912011C70ED7448
:100BC100FF2549F54974FF3548F548AB4A054CE521
:100BD1004CAA4B7002054B14F912011CFFAB4705DF
:100BE10049E549AA487002054814F9EF12016270FB
:080BF100DAAB4DAA4EA94F2218
:1001EB00E3F5F009E208B5F06D606B80F3E3F5F031
:1001FB0009E608B5F060605E80F387F009E608B5A4
:10020B00F054605280F487F009E208B5F04860467C
:10021B0080F488828C8387F009E0A3B5F0386036D0
:10022B0080F488828C8387F009E493A3B5F0276070
:10023B002580F388828C83E3F5F009E0A3B5F016F3
:10024B00601480F388828C83E3F5F009E493A3B503
:10025B00F004600280F2020316808580E7808E80B6
:10026B00D2803C8015806C807E809B80B5808B809B
:10027B00A1804F8070803A02032289828A83ECFA34
:10028B00E493F5F0A3C8C582C8CCC583CCE493A393
:10029B00C8C582C8CCC583CCB5F070606E80E189CF
:1002AB00828A83E493F5F0A3E208B5F05E605C808C
:1002BB00F289828A83E0F5F0A3E608B5F04D604B36
:1002CB0080F389828A83E0F5F0A3E208B5F03C6005
:1002DB003A80F389828A83E493F5F0A3E608B5F0BC
:1002EB002A602880F2805389828A83ECFAE493F5A2
:1002FB00F0A3C8C582C8CCC583CCE0A3C8C582C84F
:10030B00CCC583CCB5F004600280E27FFFB5F00270
:10031B000F2240027F012289828A83ECFAE0F5F0FA
:10032B00A3C8C582C8CCC583CCE0A3C8C582C8CC42
:10033B00C583CCB5F0D560D380E389828A83ECFA90
:10034B00E0F5F0A3C8C582C8CCC583CCE493A3C8A1
:10035B00C582C8CCC583CCB5F0B160AF80E288F064
:10036B00ED2402B4040050A3F582EB2402B4040084
:0B037B005099232345822390026473F5
:100BF9008B448A4589468B478A488949AB47AA4825
:100C0900A94912011C600D74012549F549E43548CB
:100C1900F54880E8AB47AA48A94912011C6D700143
:100C290022E5491549AA4870021548F9E544854560
:100C39008385468265477008E965827003EA6583A2
:060C490070D2FBFAF92253
:100AC3008B508A518952AB53AA54A95512011C6009
:100AD30063AB50AA51A95212011C605F855356851E
:100AE30054578555588B598A5A895BAB56AA57A9CF
:100AF3005812011CFF6023AB59AA5AA95B12011CAF
:100B03006F7017042558F558E43557F557740125C8
:100B13005BF55BE4355AF55A80D1AB56AA57A95811
:100B230012011C7002800D74012552F552E43551F7
:100B3300F551809DAB50AA51A952227B007A0079CE
:020B430000228E
:100989008B258A268927AB25AA26A92712011CFFB0
:10099900120D46500D74012527F527E43526F52655
:1009A90080E4D202AB25AA26A92712011CFF642BD9
:1009B9006004EFB42D1BAB250527E527AA26700295
:1009C900052614F912011C642D6003D38001C3921A
:1009D90002E4F528F529AB25AA26A92712011CFF4F
:1009E900120D8C5036AB25AA26A92712011CFF33FC
:1009F90095E0FEEF24D0FBEE34FFFAAE28AF297C58
:100A0900007D0A120386EF2BF529EE3AF5287401C9
:100A19002527F527E43526F52680BB300206AE28C2
:0E0A2900AF298009C3E49529FFE49528FE2239
:10038600EF8DF0A4A8F0CF8CF0A428CE8DF0A42E8B
:02039600FE2245
:0F0D8C00EFC394304007EF943A50028001C32226
:100D4600EFC394094005EF940E4003BF2003D38000
:030D560001C322B4
:00000001FF
